{
  "_format": "hh-sol-artifact-1",
  "contractName": "MyNFT",
  "sourceName": "contracts/MyNFT.sol",
  "abi": [
    {
      "inputs": [],
      "stateMutability": "nonpayable",
      "type": "constructor"
    },
    {
      "anonymous": false,
      "inputs": [
        {
          "indexed": true,
          "internalType": "address",
          "name": "owner",
          "type": "address"
        },
        {
          "indexed": true,
          "internalType": "address",
          "name": "approved",
          "type": "address"
        },
        {
          "indexed": true,
          "internalType": "uint256",
          "name": "tokenId",
          "type": "uint256"
        }
      ],
      "name": "Approval",
      "type": "event"
    },
    {
      "anonymous": false,
      "inputs": [
        {
          "indexed": true,
          "internalType": "address",
          "name": "owner",
          "type": "address"
        },
        {
          "indexed": true,
          "internalType": "address",
          "name": "operator",
          "type": "address"
        },
        {
          "indexed": false,
          "internalType": "bool",
          "name": "approved",
          "type": "bool"
        }
      ],
      "name": "ApprovalForAll",
      "type": "event"
    },
    {
      "anonymous": false,
      "inputs": [
        {
          "indexed": false,
          "internalType": "address",
          "name": "sender",
          "type": "address"
        },
        {
          "indexed": false,
          "internalType": "uint256",
          "name": "tokenId",
          "type": "uint256"
        }
      ],
      "name": "NewNFTMinted",
      "type": "event"
    },
    {
      "anonymous": false,
      "inputs": [
        {
          "indexed": true,
          "internalType": "address",
          "name": "from",
          "type": "address"
        },
        {
          "indexed": true,
          "internalType": "address",
          "name": "to",
          "type": "address"
        },
        {
          "indexed": true,
          "internalType": "uint256",
          "name": "tokenId",
          "type": "uint256"
        }
      ],
      "name": "Transfer",
      "type": "event"
    },
    {
      "inputs": [],
      "name": "MINT_LIMIT",
      "outputs": [
        {
          "internalType": "uint256",
          "name": "",
          "type": "uint256"
        }
      ],
      "stateMutability": "view",
      "type": "function"
    },
    {
      "inputs": [
        {
          "internalType": "address",
          "name": "to",
          "type": "address"
        },
        {
          "internalType": "uint256",
          "name": "tokenId",
          "type": "uint256"
        }
      ],
      "name": "approve",
      "outputs": [],
      "stateMutability": "nonpayable",
      "type": "function"
    },
    {
      "inputs": [
        {
          "internalType": "address",
          "name": "owner",
          "type": "address"
        }
      ],
      "name": "balanceOf",
      "outputs": [
        {
          "internalType": "uint256",
          "name": "",
          "type": "uint256"
        }
      ],
      "stateMutability": "view",
      "type": "function"
    },
    {
      "inputs": [
        {
          "internalType": "uint256",
          "name": "tokenId",
          "type": "uint256"
        }
      ],
      "name": "getApproved",
      "outputs": [
        {
          "internalType": "address",
          "name": "",
          "type": "address"
        }
      ],
      "stateMutability": "view",
      "type": "function"
    },
    {
      "inputs": [],
      "name": "getTotalNFTsMintedSoFar",
      "outputs": [
        {
          "internalType": "uint256",
          "name": "",
          "type": "uint256"
        }
      ],
      "stateMutability": "view",
      "type": "function"
    },
    {
      "inputs": [
        {
          "internalType": "address",
          "name": "owner",
          "type": "address"
        },
        {
          "internalType": "address",
          "name": "operator",
          "type": "address"
        }
      ],
      "name": "isApprovedForAll",
      "outputs": [
        {
          "internalType": "bool",
          "name": "",
          "type": "bool"
        }
      ],
      "stateMutability": "view",
      "type": "function"
    },
    {
      "inputs": [],
      "name": "makeNFT",
      "outputs": [],
      "stateMutability": "nonpayable",
      "type": "function"
    },
    {
      "inputs": [],
      "name": "name",
      "outputs": [
        {
          "internalType": "string",
          "name": "",
          "type": "string"
        }
      ],
      "stateMutability": "view",
      "type": "function"
    },
    {
      "inputs": [
        {
          "internalType": "uint256",
          "name": "tokenId",
          "type": "uint256"
        }
      ],
      "name": "ownerOf",
      "outputs": [
        {
          "internalType": "address",
          "name": "",
          "type": "address"
        }
      ],
      "stateMutability": "view",
      "type": "function"
    },
    {
      "inputs": [
        {
          "internalType": "uint256",
          "name": "tokenId",
          "type": "uint256"
        }
      ],
      "name": "pickRandomFirstWord",
      "outputs": [
        {
          "internalType": "string",
          "name": "",
          "type": "string"
        }
      ],
      "stateMutability": "view",
      "type": "function"
    },
    {
      "inputs": [
        {
          "internalType": "uint256",
          "name": "tokenId",
          "type": "uint256"
        }
      ],
      "name": "pickRandomSecondWord",
      "outputs": [
        {
          "internalType": "string",
          "name": "",
          "type": "string"
        }
      ],
      "stateMutability": "view",
      "type": "function"
    },
    {
      "inputs": [
        {
          "internalType": "uint256",
          "name": "tokenId",
          "type": "uint256"
        }
      ],
      "name": "pickRandomThirdWord",
      "outputs": [
        {
          "internalType": "string",
          "name": "",
          "type": "string"
        }
      ],
      "stateMutability": "view",
      "type": "function"
    },
    {
      "inputs": [
        {
          "internalType": "address",
          "name": "from",
          "type": "address"
        },
        {
          "internalType": "address",
          "name": "to",
          "type": "address"
        },
        {
          "internalType": "uint256",
          "name": "tokenId",
          "type": "uint256"
        }
      ],
      "name": "safeTransferFrom",
      "outputs": [],
      "stateMutability": "nonpayable",
      "type": "function"
    },
    {
      "inputs": [
        {
          "internalType": "address",
          "name": "from",
          "type": "address"
        },
        {
          "internalType": "address",
          "name": "to",
          "type": "address"
        },
        {
          "internalType": "uint256",
          "name": "tokenId",
          "type": "uint256"
        },
        {
          "internalType": "bytes",
          "name": "_data",
          "type": "bytes"
        }
      ],
      "name": "safeTransferFrom",
      "outputs": [],
      "stateMutability": "nonpayable",
      "type": "function"
    },
    {
      "inputs": [
        {
          "internalType": "address",
          "name": "operator",
          "type": "address"
        },
        {
          "internalType": "bool",
          "name": "approved",
          "type": "bool"
        }
      ],
      "name": "setApprovalForAll",
      "outputs": [],
      "stateMutability": "nonpayable",
      "type": "function"
    },
    {
      "inputs": [
        {
          "internalType": "bytes4",
          "name": "interfaceId",
          "type": "bytes4"
        }
      ],
      "name": "supportsInterface",
      "outputs": [
        {
          "internalType": "bool",
          "name": "",
          "type": "bool"
        }
      ],
      "stateMutability": "view",
      "type": "function"
    },
    {
      "inputs": [],
      "name": "symbol",
      "outputs": [
        {
          "internalType": "string",
          "name": "",
          "type": "string"
        }
      ],
      "stateMutability": "view",
      "type": "function"
    },
    {
      "inputs": [
        {
          "internalType": "uint256",
          "name": "tokenId",
          "type": "uint256"
        }
      ],
      "name": "tokenURI",
      "outputs": [
        {
          "internalType": "string",
          "name": "",
          "type": "string"
        }
      ],
      "stateMutability": "view",
      "type": "function"
    },
    {
      "inputs": [
        {
          "internalType": "address",
          "name": "from",
          "type": "address"
        },
        {
          "internalType": "address",
          "name": "to",
          "type": "address"
        },
        {
          "internalType": "uint256",
          "name": "tokenId",
          "type": "uint256"
        }
      ],
      "name": "transferFrom",
      "outputs": [],
      "stateMutability": "nonpayable",
      "type": "function"
    }
  ],
  "bytecode": "0x608060405260405180610160016040528061012f81526020016200445461012f913960089080519060200190620000389291906200067e565b506040518060c001604052806040518060400160405280600881526020017f467269656e646c7900000000000000000000000000000000000000000000000081525081526020016040518060400160405280600681526020017f536176616765000000000000000000000000000000000000000000000000000081525081526020016040518060400160405280600681526020017f446f63696c65000000000000000000000000000000000000000000000000000081525081526020016040518060400160405280600881526020017f416d696361626c6500000000000000000000000000000000000000000000000081525081526020016040518060400160405280600781526020017f486f7374696c650000000000000000000000000000000000000000000000000081525081526020016040518060400160405280600781526020017f45727261746963000000000000000000000000000000000000000000000000008152508152506009906006620001b69291906200070f565b506040518060c001604052806040518060400160405280600781526020017f427261697365640000000000000000000000000000000000000000000000000081525081526020016040518060400160405280600581526020017f467269656400000000000000000000000000000000000000000000000000000081525081526020016040518060400160405280600681526020017f536561726564000000000000000000000000000000000000000000000000000081525081526020016040518060400160405280600681526020017f426f696c6564000000000000000000000000000000000000000000000000000081525081526020016040518060400160405280600681526020017f536d6f6b6564000000000000000000000000000000000000000000000000000081525081526020016040518060400160405280600681526020017f46726f7a656e0000000000000000000000000000000000000000000000000000815250815250600a906006620003349291906200070f565b506040518060c001604052806040518060400160405280600481526020017f506f726b0000000000000000000000000000000000000000000000000000000081525081526020016040518060400160405280600481526020017f426565660000000000000000000000000000000000000000000000000000000081525081526020016040518060400160405280600781526020017f436869636b656e0000000000000000000000000000000000000000000000000081525081526020016040518060400160405280600481526020017f4c616d620000000000000000000000000000000000000000000000000000000081525081526020016040518060400160405280600481526020017f476f61740000000000000000000000000000000000000000000000000000000081525081526020016040518060400160405280600681526020017f436172726f740000000000000000000000000000000000000000000000000000815250815250600b906006620004b29291906200070f565b50348015620004c057600080fd5b506040518060400160405280600981526020017f5371756172654e465400000000000000000000000000000000000000000000008152506040518060400160405280600681526020017f53515541524500000000000000000000000000000000000000000000000000008152508160009080519060200190620005459291906200067e565b5080600190805190602001906200055e9291906200067e565b505050620005ac6040518060400160405280601e81526020017f54686973206973206d79204e465420636f6e74726163742e20576f6168210000815250620005b260201b6200116a1760201c565b62000930565b6200065281604051602401620005c9919062000844565b6040516020818303038152906040527f41304fac000000000000000000000000000000000000000000000000000000007bffffffffffffffffffffffffffffffffffffffffffffffffffffffff19166020820180517bffffffffffffffffffffffffffffffffffffffffffffffffffffffff83818316178352505050506200065560201b60201c565b50565b60008151905060006a636f6e736f6c652e6c6f679050602083016000808483855afa5050505050565b8280546200068c90620008ba565b90600052602060002090601f016020900481019282620006b05760008555620006fc565b82601f10620006cb57805160ff1916838001178555620006fc565b82800160010185558215620006fc579182015b82811115620006fb578251825591602001919060010190620006de565b5b5090506200070b919062000776565b5090565b82805482825590600052602060002090810192821562000763579160200282015b8281111562000762578251829080519060200190620007519291906200067e565b509160200191906001019062000730565b5b50905062000772919062000795565b5090565b5b808211156200079157600081600090555060010162000777565b5090565b5b80821115620007b95760008181620007af9190620007bd565b5060010162000796565b5090565b508054620007cb90620008ba565b6000825580601f10620007df575062000800565b601f016020900490600052602060002090810190620007ff919062000776565b5b50565b6000620008108262000868565b6200081c818562000873565b93506200082e81856020860162000884565b62000839816200091f565b840191505092915050565b6000602082019050818103600083015262000860818462000803565b905092915050565b600081519050919050565b600082825260208201905092915050565b60005b83811015620008a457808201518184015260208101905062000887565b83811115620008b4576000848401525b50505050565b60006002820490506001821680620008d357607f821691505b60208210811415620008ea57620008e9620008f0565b5b50919050565b7f4e487b7100000000000000000000000000000000000000000000000000000000600052602260045260246000fd5b6000601f19601f8301169050919050565b613b1480620009406000396000f3fe608060405234801561001057600080fd5b50600436106101215760003560e01c80636352211e116100ad578063b187301f11610071578063b187301f14610308578063b88d4fde14610338578063c575757a14610354578063c87b56dd14610384578063e985e9c5146103b457610121565b80636352211e1461026457806370a082311461029457806395d89b41146102c4578063a22cb465146102e2578063b036b4bd146102fe57610121565b8063081812fc116100f4578063081812fc146101b0578063095ea7b3146101e057806323b872dd146101fc5780632de38d681461021857806342842e0e1461024857610121565b806301ffc9a7146101265780630277524014610156578063060475901461017457806306fdde0314610192575b600080fd5b610140600480360381019061013b919061256a565b6103e4565b60405161014d9190612c97565b60405180910390f35b61015e6104c6565b60405161016b9190612f32565b60405180910390f35b61017c6104cb565b6040516101899190612f32565b60405180910390f35b61019a6104dc565b6040516101a79190612cb2565b60405180910390f35b6101ca60048036038101906101c591906125bc565b61056e565b6040516101d79190612c07565b60405180910390f35b6101fa60048036038101906101f5919061252e565b6105f3565b005b61021660048036038101906102119190612428565b61070b565b005b610232600480360381019061022d91906125bc565b61076b565b60405161023f9190612cb2565b60405180910390f35b610262600480360381019061025d9190612428565b610889565b005b61027e600480360381019061027991906125bc565b6108a9565b60405161028b9190612c07565b60405180910390f35b6102ae60048036038101906102a991906123c3565b61095b565b6040516102bb9190612f32565b60405180910390f35b6102cc610a13565b6040516102d99190612cb2565b60405180910390f35b6102fc60048036038101906102f791906124f2565b610aa5565b005b610306610abb565b005b610322600480360381019061031d91906125bc565b610ce6565b60405161032f9190612cb2565b60405180910390f35b610352600480360381019061034d9190612477565b610e04565b005b61036e600480360381019061036991906125bc565b610e66565b60405161037b9190612cb2565b60405180910390f35b61039e600480360381019061039991906125bc565b610f84565b6040516103ab9190612cb2565b60405180910390f35b6103ce60048036038101906103c991906123ec565b6110d6565b6040516103db9190612c97565b60405180910390f35b60007f80ac58cd000000000000000000000000000000000000000000000000000000007bffffffffffffffffffffffffffffffffffffffffffffffffffffffff1916827bffffffffffffffffffffffffffffffffffffffffffffffffffffffff191614806104af57507f5b5e139f000000000000000000000000000000000000000000000000000000007bffffffffffffffffffffffffffffffffffffffffffffffffffffffff1916827bffffffffffffffffffffffffffffffffffffffffffffffffffffffff1916145b806104bf57506104be82611203565b5b9050919050565b603281565b60006104d7600761126d565b905090565b6060600080546104eb906131c6565b80601f0160208091040260200160405190810160405280929190818152602001828054610517906131c6565b80156105645780601f1061053957610100808354040283529160200191610564565b820191906000526020600020905b81548152906001019060200180831161054757829003601f168201915b5050505050905090565b60006105798261127b565b6105b8576040517f08c379a00000000000000000000000000000000000000000000000000000000081526004016105af90612e72565b60405180910390fd5b6004600083815260200190815260200160002060009054906101000a900473ffffffffffffffffffffffffffffffffffffffff169050919050565b60006105fe826108a9565b90508073ffffffffffffffffffffffffffffffffffffffff168373ffffffffffffffffffffffffffffffffffffffff16141561066f576040517f08c379a000000000000000000000000000000000000000000000000000000000815260040161066690612ed2565b60405180910390fd5b8073ffffffffffffffffffffffffffffffffffffffff1661068e6112e7565b73ffffffffffffffffffffffffffffffffffffffff1614806106bd57506106bc816106b76112e7565b6110d6565b5b6106fc576040517f08c379a00000000000000000000000000000000000000000000000000000000081526004016106f390612db2565b60405180910390fd5b61070683836112ef565b505050565b61071c6107166112e7565b826113a8565b61075b576040517f08c379a000000000000000000000000000000000000000000000000000000000815260040161075290612f12565b60405180910390fd5b610766838383611486565b505050565b6060600061079f61077b846116e2565b60405160200161078b9190612bc3565b60405160208183030381529060405261188f565b9050600980549050816107b29190613272565b9050600981815481106107ee577f4e487b7100000000000000000000000000000000000000000000000000000000600052603260045260246000fd5b906000526020600020018054610803906131c6565b80601f016020809104026020016040519081016040528092919081815260200182805461082f906131c6565b801561087c5780601f106108515761010080835404028352916020019161087c565b820191906000526020600020905b81548152906001019060200180831161085f57829003601f168201915b5050505050915050919050565b6108a483838360405180602001604052806000815250610e04565b505050565b6000806002600084815260200190815260200160002060009054906101000a900473ffffffffffffffffffffffffffffffffffffffff169050600073ffffffffffffffffffffffffffffffffffffffff168173ffffffffffffffffffffffffffffffffffffffff161415610952576040517f08c379a000000000000000000000000000000000000000000000000000000000815260040161094990612df2565b60405180910390fd5b80915050919050565b60008073ffffffffffffffffffffffffffffffffffffffff168273ffffffffffffffffffffffffffffffffffffffff1614156109cc576040517f08c379a00000000000000000000000000000000000000000000000000000000081526004016109c390612dd2565b60405180910390fd5b600360008373ffffffffffffffffffffffffffffffffffffffff1673ffffffffffffffffffffffffffffffffffffffff168152602001908152602001600020549050919050565b606060018054610a22906131c6565b80601f0160208091040260200160405190810160405280929190818152602001828054610a4e906131c6565b8015610a9b5780601f10610a7057610100808354040283529160200191610a9b565b820191906000526020600020905b815481529060010190602001808311610a7e57829003601f168201915b5050505050905090565b610ab7610ab06112e7565b83836118c2565b5050565b6000610ac7600761126d565b90506032811115610b0d576040517f08c379a0000000000000000000000000000000000000000000000000000000008152600401610b0490612ef2565b60405180910390fd5b6000610b188261076b565b90506000610b2583610ce6565b90506000610b3284610e66565b90506000838383604051602001610b4b93929190612ada565b60405160208183030381529060405290506000600882604051602001610b72929190612b0b565b60405160208183030381529060405290506000610bb783610b9284611a2f565b604051602001610ba3929190612b7e565b604051602081830303815290604052611a2f565b9050600081604051602001610bcc9190612be5565b6040516020818303038152906040529050610c1b6040518060400160405280601581526020017f0a2d2d2d2d2d2d2d2d2d2d2d2d2d2d2d2d2d2d2d2d000000000000000000000081525061116a565b610c248161116a565b610c626040518060400160405280601581526020017f2d2d2d2d2d2d2d2d2d2d2d2d2d2d2d2d2d2d2d2d0a000000000000000000000081525061116a565b610c6c3389611bed565b610c768882611c0b565b610c806007611c7f565b610ca3604051806060016040528060258152602001613a7a602591398933611c95565b7f1c05098ed1ff38e6238d2b1b04b2c7977d4c94ce651bda6473f9dba8dbf01da03389604051610cd4929190612c6e565b60405180910390a15050505050505050565b60606000610d1a610cf6846116e2565b604051602001610d069190612b5c565b60405160208183030381529060405261188f565b9050600a8054905081610d2d9190613272565b9050600a8181548110610d69577f4e487b7100000000000000000000000000000000000000000000000000000000600052603260045260246000fd5b906000526020600020018054610d7e906131c6565b80601f0160208091040260200160405190810160405280929190818152602001828054610daa906131c6565b8015610df75780601f10610dcc57610100808354040283529160200191610df7565b820191906000526020600020905b815481529060010190602001808311610dda57829003601f168201915b5050505050915050919050565b610e15610e0f6112e7565b836113a8565b610e54576040517f08c379a0000000000000000000000000000000000000000000000000000000008152600401610e4b90612f12565b60405180910390fd5b610e6084848484611d34565b50505050565b60606000610e9a610e76846116e2565b604051602001610e869190612b3a565b60405160208183030381529060405261188f565b9050600b8054905081610ead9190613272565b9050600b8181548110610ee9577f4e487b7100000000000000000000000000000000000000000000000000000000600052603260045260246000fd5b906000526020600020018054610efe906131c6565b80601f0160208091040260200160405190810160405280929190818152602001828054610f2a906131c6565b8015610f775780601f10610f4c57610100808354040283529160200191610f77565b820191906000526020600020905b815481529060010190602001808311610f5a57829003601f168201915b5050505050915050919050565b6060610f8f8261127b565b610fce576040517f08c379a0000000000000000000000000000000000000000000000000000000008152600401610fc590612e52565b60405180910390fd5b6000600660008481526020019081526020016000208054610fee906131c6565b80601f016020809104026020016040519081016040528092919081815260200182805461101a906131c6565b80156110675780601f1061103c57610100808354040283529160200191611067565b820191906000526020600020905b81548152906001019060200180831161104a57829003601f168201915b505050505090506000611078611d90565b905060008151141561108e5781925050506110d1565b6000825111156110c35780826040516020016110ab929190612ab6565b604051602081830303815290604052925050506110d1565b6110cc84611da7565b925050505b919050565b6000600560008473ffffffffffffffffffffffffffffffffffffffff1673ffffffffffffffffffffffffffffffffffffffff16815260200190815260200160002060008373ffffffffffffffffffffffffffffffffffffffff1673ffffffffffffffffffffffffffffffffffffffff16815260200190815260200160002060009054906101000a900460ff16905092915050565b6112008160405160240161117e9190612cb2565b6040516020818303038152906040527f41304fac000000000000000000000000000000000000000000000000000000007bffffffffffffffffffffffffffffffffffffffffffffffffffffffff19166020820180517bffffffffffffffffffffffffffffffffffffffffffffffffffffffff8381831617835250505050611e4e565b50565b60007f01ffc9a7000000000000000000000000000000000000000000000000000000007bffffffffffffffffffffffffffffffffffffffffffffffffffffffff1916827bffffffffffffffffffffffffffffffffffffffffffffffffffffffff1916149050919050565b600081600001549050919050565b60008073ffffffffffffffffffffffffffffffffffffffff166002600084815260200190815260200160002060009054906101000a900473ffffffffffffffffffffffffffffffffffffffff1673ffffffffffffffffffffffffffffffffffffffff1614159050919050565b600033905090565b816004600083815260200190815260200160002060006101000a81548173ffffffffffffffffffffffffffffffffffffffff021916908373ffffffffffffffffffffffffffffffffffffffff160217905550808273ffffffffffffffffffffffffffffffffffffffff16611362836108a9565b73ffffffffffffffffffffffffffffffffffffffff167f8c5be1e5ebec7d5bd14f71427d1e84f3dd0314c0f7b2291e5b200ac8c7c3b92560405160405180910390a45050565b60006113b38261127b565b6113f2576040517f08c379a00000000000000000000000000000000000000000000000000000000081526004016113e990612d92565b60405180910390fd5b60006113fd836108a9565b90508073ffffffffffffffffffffffffffffffffffffffff168473ffffffffffffffffffffffffffffffffffffffff16148061146c57508373ffffffffffffffffffffffffffffffffffffffff166114548461056e565b73ffffffffffffffffffffffffffffffffffffffff16145b8061147d575061147c81856110d6565b5b91505092915050565b8273ffffffffffffffffffffffffffffffffffffffff166114a6826108a9565b73ffffffffffffffffffffffffffffffffffffffff16146114fc576040517f08c379a00000000000000000000000000000000000000000000000000000000081526004016114f390612e92565b60405180910390fd5b600073ffffffffffffffffffffffffffffffffffffffff168273ffffffffffffffffffffffffffffffffffffffff16141561156c576040517f08c379a000000000000000000000000000000000000000000000000000000000815260040161156390612d52565b60405180910390fd5b611577838383611e77565b6115826000826112ef565b6001600360008573ffffffffffffffffffffffffffffffffffffffff1673ffffffffffffffffffffffffffffffffffffffff16815260200190815260200160002060008282546115d291906130dc565b925050819055506001600360008473ffffffffffffffffffffffffffffffffffffffff1673ffffffffffffffffffffffffffffffffffffffff16815260200190815260200160002060008282546116299190612ffb565b92505081905550816002600083815260200190815260200160002060006101000a81548173ffffffffffffffffffffffffffffffffffffffff021916908373ffffffffffffffffffffffffffffffffffffffff160217905550808273ffffffffffffffffffffffffffffffffffffffff168473ffffffffffffffffffffffffffffffffffffffff167fddf252ad1be2c89b69c2b068fc378daa952ba7f163c4a11628f55a4df523b3ef60405160405180910390a4505050565b6060600082141561172a576040518060400160405280600181526020017f3000000000000000000000000000000000000000000000000000000000000000815250905061188a565b600082905060005b6000821461175c57808061174590613229565b915050600a826117559190613051565b9150611732565b60008167ffffffffffffffff81111561179e577f4e487b7100000000000000000000000000000000000000000000000000000000600052604160045260246000fd5b6040519080825280601f01601f1916602001820160405280156117d05781602001600182028036833780820191505090505b5090505b60008514611883576001826117e991906130dc565b9150600a856117f89190613272565b60306118049190612ffb565b60f81b818381518110611840577f4e487b7100000000000000000000000000000000000000000000000000000000600052603260045260246000fd5b60200101907effffffffffffffffffffffffffffffffffffffffffffffffffffffffffffff1916908160001a905350600a8561187c9190613051565b94506117d4565b8093505050505b919050565b6000816040516020016118a29190612a9f565b6040516020818303038152906040528051906020012060001c9050919050565b8173ffffffffffffffffffffffffffffffffffffffff168373ffffffffffffffffffffffffffffffffffffffff161415611931576040517f08c379a000000000000000000000000000000000000000000000000000000000815260040161192890612d72565b60405180910390fd5b80600560008573ffffffffffffffffffffffffffffffffffffffff1673ffffffffffffffffffffffffffffffffffffffff16815260200190815260200160002060008473ffffffffffffffffffffffffffffffffffffffff1673ffffffffffffffffffffffffffffffffffffffff16815260200190815260200160002060006101000a81548160ff0219169083151502179055508173ffffffffffffffffffffffffffffffffffffffff168373ffffffffffffffffffffffffffffffffffffffff167f17307eab39ab6107e8899845ad3d59bd9653f200f220920489ca2b5937696c3183604051611a229190612c97565b60405180910390a3505050565b60606000825190506000811415611a585760405180602001604052806000815250915050611be8565b60006003600283611a699190612ffb565b611a739190613051565b6004611a7f9190613082565b90506000602082611a909190612ffb565b67ffffffffffffffff811115611acf577f4e487b7100000000000000000000000000000000000000000000000000000000600052604160045260246000fd5b6040519080825280601f01601f191660200182016040528015611b015781602001600182028036833780820191505090505b5090506000604051806060016040528060408152602001613a9f604091399050600181016020830160005b86811015611ba55760038101905062ffffff818a015116603f8160121c168401518060081b905060ff603f83600c1c1686015116810190508060081b905060ff603f8360061c1686015116810190508060081b905060ff603f831686015116810190508060e01b90508084526004840193505050611b2c565b506003860660018114611bbf5760028114611bcf57611bda565b613d3d60f01b6002830352611bda565b603d60f81b60018303525b508484525050819450505050505b919050565b611c07828260405180602001604052806000815250611e7c565b5050565b611c148261127b565b611c53576040517f08c379a0000000000000000000000000000000000000000000000000000000008152600401611c4a90612e12565b60405180910390fd5b80600660008481526020019081526020016000209080519060200190611c7a92919061224f565b505050565b6001816000016000828254019250508190555050565b611d2f838383604051602401611cad93929190612cd4565b6040516020818303038152906040527fe3849f79000000000000000000000000000000000000000000000000000000007bffffffffffffffffffffffffffffffffffffffffffffffffffffffff19166020820180517bffffffffffffffffffffffffffffffffffffffffffffffffffffffff8381831617835250505050611e4e565b505050565b611d3f848484611486565b611d4b84848484611ed7565b611d8a576040517f08c379a0000000000000000000000000000000000000000000000000000000008152600401611d8190612d12565b60405180910390fd5b50505050565b606060405180602001604052806000815250905090565b6060611db28261127b565b611df1576040517f08c379a0000000000000000000000000000000000000000000000000000000008152600401611de890612eb2565b60405180910390fd5b6000611dfb611d90565b90506000815111611e1b5760405180602001604052806000815250611e46565b80611e25846116e2565b604051602001611e36929190612ab6565b6040516020818303038152906040525b915050919050565b60008151905060006a636f6e736f6c652e6c6f679050602083016000808483855afa5050505050565b505050565b611e86838361206e565b611e936000848484611ed7565b611ed2576040517f08c379a0000000000000000000000000000000000000000000000000000000008152600401611ec990612d12565b60405180910390fd5b505050565b6000611ef88473ffffffffffffffffffffffffffffffffffffffff1661223c565b15612061578373ffffffffffffffffffffffffffffffffffffffff1663150b7a02611f216112e7565b8786866040518563ffffffff1660e01b8152600401611f439493929190612c22565b602060405180830381600087803b158015611f5d57600080fd5b505af1925050508015611f8e57506040513d601f19601f82011682018060405250810190611f8b9190612593565b60015b612011573d8060008114611fbe576040519150601f19603f3d011682016040523d82523d6000602084013e611fc3565b606091505b50600081511415612009576040517f08c379a000000000000000000000000000000000000000000000000000000000815260040161200090612d12565b60405180910390fd5b805181602001fd5b63150b7a0260e01b7bffffffffffffffffffffffffffffffffffffffffffffffffffffffff1916817bffffffffffffffffffffffffffffffffffffffffffffffffffffffff191614915050612066565b600190505b949350505050565b600073ffffffffffffffffffffffffffffffffffffffff168273ffffffffffffffffffffffffffffffffffffffff1614156120de576040517f08c379a00000000000000000000000000000000000000000000000000000000081526004016120d590612e32565b60405180910390fd5b6120e78161127b565b15612127576040517f08c379a000000000000000000000000000000000000000000000000000000000815260040161211e90612d32565b60405180910390fd5b61213360008383611e77565b6001600360008473ffffffffffffffffffffffffffffffffffffffff1673ffffffffffffffffffffffffffffffffffffffff16815260200190815260200160002060008282546121839190612ffb565b92505081905550816002600083815260200190815260200160002060006101000a81548173ffffffffffffffffffffffffffffffffffffffff021916908373ffffffffffffffffffffffffffffffffffffffff160217905550808273ffffffffffffffffffffffffffffffffffffffff16600073ffffffffffffffffffffffffffffffffffffffff167fddf252ad1be2c89b69c2b068fc378daa952ba7f163c4a11628f55a4df523b3ef60405160405180910390a45050565b600080823b905060008111915050919050565b82805461225b906131c6565b90600052602060002090601f01602090048101928261227d57600085556122c4565b82601f1061229657805160ff19168380011785556122c4565b828001600101855582156122c4579182015b828111156122c35782518255916020019190600101906122a8565b5b5090506122d191906122d5565b5090565b5b808211156122ee5760008160009055506001016122d6565b5090565b600061230561230084612f72565b612f4d565b90508281526020810184848401111561231d57600080fd5b612328848285613184565b509392505050565b60008135905061233f81613a1d565b92915050565b60008135905061235481613a34565b92915050565b60008135905061236981613a4b565b92915050565b60008151905061237e81613a4b565b92915050565b600082601f83011261239557600080fd5b81356123a58482602086016122f2565b91505092915050565b6000813590506123bd81613a62565b92915050565b6000602082840312156123d557600080fd5b60006123e384828501612330565b91505092915050565b600080604083850312156123ff57600080fd5b600061240d85828601612330565b925050602061241e85828601612330565b9150509250929050565b60008060006060848603121561243d57600080fd5b600061244b86828701612330565b935050602061245c86828701612330565b925050604061246d868287016123ae565b9150509250925092565b6000806000806080858703121561248d57600080fd5b600061249b87828801612330565b94505060206124ac87828801612330565b93505060406124bd878288016123ae565b925050606085013567ffffffffffffffff8111156124da57600080fd5b6124e687828801612384565b91505092959194509250565b6000806040838503121561250557600080fd5b600061251385828601612330565b925050602061252485828601612345565b9150509250929050565b6000806040838503121561254157600080fd5b600061254f85828601612330565b9250506020612560858286016123ae565b9150509250929050565b60006020828403121561257c57600080fd5b600061258a8482850161235a565b91505092915050565b6000602082840312156125a557600080fd5b60006125b38482850161236f565b91505092915050565b6000602082840312156125ce57600080fd5b60006125dc848285016123ae565b91505092915050565b6125ee81613110565b82525050565b6125fd81613122565b82525050565b600061260e82612fb8565b6126188185612fce565b9350612628818560208601613193565b6126318161335f565b840191505092915050565b600061264782612fc3565b6126518185612fdf565b9350612661818560208601613193565b61266a8161335f565b840191505092915050565b600061268082612fc3565b61268a8185612ff0565b935061269a818560208601613193565b80840191505092915050565b600081546126b3816131c6565b6126bd8186612ff0565b945060018216600081146126d857600181146126e95761271c565b60ff1983168652818601935061271c565b6126f285612fa3565b60005b83811015612714578154818901526001820191506020810190506126f5565b838801955050505b50505092915050565b6000612732603283612fdf565b915061273d82613370565b604082019050919050565b6000612755601c83612fdf565b9150612760826133bf565b602082019050919050565b6000612778600a83612ff0565b9150612783826133e8565b600a82019050919050565b600061279b602483612fdf565b91506127a682613411565b604082019050919050565b60006127be601983612fdf565b91506127c982613460565b602082019050919050565b60006127e1606383612ff0565b91506127ec82613489565b606382019050919050565b6000612804600b83612ff0565b915061280f82613524565b600b82019050919050565b6000612827602c83612fdf565b91506128328261354d565b604082019050919050565b600061284a600d83612ff0565b91506128558261359c565b600d82019050919050565b600061286d603883612fdf565b9150612878826135c5565b604082019050919050565b6000612890602a83612fdf565b915061289b82613614565b604082019050919050565b60006128b3602983612fdf565b91506128be82613663565b604082019050919050565b60006128d6602e83612fdf565b91506128e1826136b2565b604082019050919050565b60006128f9600283612ff0565b915061290482613701565b600282019050919050565b600061291c602083612fdf565b91506129278261372a565b602082019050919050565b600061293f603183612fdf565b915061294a82613753565b604082019050919050565b6000612962602c83612fdf565b915061296d826137a2565b604082019050919050565b6000612985602983612fdf565b9150612990826137f1565b604082019050919050565b60006129a8602f83612fdf565b91506129b382613840565b604082019050919050565b60006129cb600a83612ff0565b91506129d68261388f565b600a82019050919050565b60006129ee602183612fdf565b91506129f9826138b8565b604082019050919050565b6000612a11600a83612ff0565b9150612a1c82613907565b600a82019050919050565b6000612a34604d83612fdf565b9150612a3f82613930565b606082019050919050565b6000612a57601d83612ff0565b9150612a62826139a5565b601d82019050919050565b6000612a7a603183612fdf565b9150612a85826139ce565b604082019050919050565b612a998161317a565b82525050565b6000612aab8284612675565b915081905092915050565b6000612ac28285612675565b9150612ace8284612675565b91508190509392505050565b6000612ae68286612675565b9150612af28285612675565b9150612afe8284612675565b9150819050949350505050565b6000612b1782856126a6565b9150612b238284612675565b9150612b2e8261283d565b91508190509392505050565b6000612b458261276b565b9150612b518284612675565b915081905092915050565b6000612b67826127f7565b9150612b738284612675565b915081905092915050565b6000612b89826129be565b9150612b958285612675565b9150612ba0826127d4565b9150612bac8284612675565b9150612bb7826128ec565b91508190509392505050565b6000612bce82612a04565b9150612bda8284612675565b915081905092915050565b6000612bf082612a4a565b9150612bfc8284612675565b915081905092915050565b6000602082019050612c1c60008301846125e5565b92915050565b6000608082019050612c3760008301876125e5565b612c4460208301866125e5565b612c516040830185612a90565b8181036060830152612c638184612603565b905095945050505050565b6000604082019050612c8360008301856125e5565b612c906020830184612a90565b9392505050565b6000602082019050612cac60008301846125f4565b92915050565b60006020820190508181036000830152612ccc818461263c565b905092915050565b60006060820190508181036000830152612cee818661263c565b9050612cfd6020830185612a90565b612d0a60408301846125e5565b949350505050565b60006020820190508181036000830152612d2b81612725565b9050919050565b60006020820190508181036000830152612d4b81612748565b9050919050565b60006020820190508181036000830152612d6b8161278e565b9050919050565b60006020820190508181036000830152612d8b816127b1565b9050919050565b60006020820190508181036000830152612dab8161281a565b9050919050565b60006020820190508181036000830152612dcb81612860565b9050919050565b60006020820190508181036000830152612deb81612883565b9050919050565b60006020820190508181036000830152612e0b816128a6565b9050919050565b60006020820190508181036000830152612e2b816128c9565b9050919050565b60006020820190508181036000830152612e4b8161290f565b9050919050565b60006020820190508181036000830152612e6b81612932565b9050919050565b60006020820190508181036000830152612e8b81612955565b9050919050565b60006020820190508181036000830152612eab81612978565b9050919050565b60006020820190508181036000830152612ecb8161299b565b9050919050565b60006020820190508181036000830152612eeb816129e1565b9050919050565b60006020820190508181036000830152612f0b81612a27565b9050919050565b60006020820190508181036000830152612f2b81612a6d565b9050919050565b6000602082019050612f476000830184612a90565b92915050565b6000612f57612f68565b9050612f6382826131f8565b919050565b6000604051905090565b600067ffffffffffffffff821115612f8d57612f8c613330565b5b612f968261335f565b9050602081019050919050565b60008190508160005260206000209050919050565b600081519050919050565b600081519050919050565b600082825260208201905092915050565b600082825260208201905092915050565b600081905092915050565b60006130068261317a565b91506130118361317a565b9250827fffffffffffffffffffffffffffffffffffffffffffffffffffffffffffffffff03821115613046576130456132a3565b5b828201905092915050565b600061305c8261317a565b91506130678361317a565b925082613077576130766132d2565b5b828204905092915050565b600061308d8261317a565b91506130988361317a565b9250817fffffffffffffffffffffffffffffffffffffffffffffffffffffffffffffffff04831182151516156130d1576130d06132a3565b5b828202905092915050565b60006130e78261317a565b91506130f28361317a565b925082821015613105576131046132a3565b5b828203905092915050565b600061311b8261315a565b9050919050565b60008115159050919050565b60007fffffffff0000000000000000000000000000000000000000000000000000000082169050919050565b600073ffffffffffffffffffffffffffffffffffffffff82169050919050565b6000819050919050565b82818337600083830152505050565b60005b838110156131b1578082015181840152602081019050613196565b838111156131c0576000848401525b50505050565b600060028204905060018216806131de57607f821691505b602082108114156131f2576131f1613301565b5b50919050565b6132018261335f565b810181811067ffffffffffffffff821117156132205761321f613330565b5b80604052505050565b60006132348261317a565b91507fffffffffffffffffffffffffffffffffffffffffffffffffffffffffffffffff821415613267576132666132a3565b5b600182019050919050565b600061327d8261317a565b91506132888361317a565b925082613298576132976132d2565b5b828206905092915050565b7f4e487b7100000000000000000000000000000000000000000000000000000000600052601160045260246000fd5b7f4e487b7100000000000000000000000000000000000000000000000000000000600052601260045260246000fd5b7f4e487b7100000000000000000000000000000000000000000000000000000000600052602260045260246000fd5b7f4e487b7100000000000000000000000000000000000000000000000000000000600052604160045260246000fd5b6000601f19601f8301169050919050565b7f4552433732313a207472616e7366657220746f206e6f6e20455243373231526560008201527f63656976657220696d706c656d656e7465720000000000000000000000000000602082015250565b7f4552433732313a20746f6b656e20616c7265616479206d696e74656400000000600082015250565b7f54484952445f574f524400000000000000000000000000000000000000000000600082015250565b7f4552433732313a207472616e7366657220746f20746865207a65726f2061646460008201527f7265737300000000000000000000000000000000000000000000000000000000602082015250565b7f4552433732313a20617070726f766520746f2063616c6c657200000000000000600082015250565b7f222c20226465736372697074696f6e223a20224120686967686c79206163636c60008201527f61696d656420636f6c6c656374696f6e206f6620737175617265732e222c202260208201527f696d616765223a2022646174613a696d6167652f7376672b786d6c3b6261736560408201527f36342c0000000000000000000000000000000000000000000000000000000000606082015250565b7f5345434f4e445f574f5244000000000000000000000000000000000000000000600082015250565b7f4552433732313a206f70657261746f7220717565727920666f72206e6f6e657860008201527f697374656e7420746f6b656e0000000000000000000000000000000000000000602082015250565b7f3c2f746578743e3c2f7376673e00000000000000000000000000000000000000600082015250565b7f4552433732313a20617070726f76652063616c6c6572206973206e6f74206f7760008201527f6e6572206e6f7220617070726f76656420666f7220616c6c0000000000000000602082015250565b7f4552433732313a2062616c616e636520717565727920666f7220746865207a6560008201527f726f206164647265737300000000000000000000000000000000000000000000602082015250565b7f4552433732313a206f776e657220717565727920666f72206e6f6e657869737460008201527f656e7420746f6b656e0000000000000000000000000000000000000000000000602082015250565b7f45524337323155524953746f726167653a2055524920736574206f66206e6f6e60008201527f6578697374656e7420746f6b656e000000000000000000000000000000000000602082015250565b7f227d000000000000000000000000000000000000000000000000000000000000600082015250565b7f4552433732313a206d696e7420746f20746865207a65726f2061646472657373600082015250565b7f45524337323155524953746f726167653a2055524920717565727920666f722060008201527f6e6f6e6578697374656e7420746f6b656e000000000000000000000000000000602082015250565b7f4552433732313a20617070726f76656420717565727920666f72206e6f6e657860008201527f697374656e7420746f6b656e0000000000000000000000000000000000000000602082015250565b7f4552433732313a207472616e73666572206f6620746f6b656e2074686174206960008201527f73206e6f74206f776e0000000000000000000000000000000000000000000000602082015250565b7f4552433732314d657461646174613a2055524920717565727920666f72206e6f60008201527f6e6578697374656e7420746f6b656e0000000000000000000000000000000000602082015250565b7f7b226e616d65223a202200000000000000000000000000000000000000000000600082015250565b7f4552433732313a20617070726f76616c20746f2063757272656e74206f776e6560008201527f7200000000000000000000000000000000000000000000000000000000000000602082015250565b7f46495253545f574f524400000000000000000000000000000000000000000000600082015250565b7f546865206d696e74206c696d697420686173206265656e20726561636865642e60008201527f204e6f206d6f7265204e465473206d6179206265206d696e746564206279207460208201527f68697320636f6e74726163742e00000000000000000000000000000000000000604082015250565b7f646174613a6170706c69636174696f6e2f6a736f6e3b6261736536342c000000600082015250565b7f4552433732313a207472616e736665722063616c6c6572206973206e6f74206f60008201527f776e6572206e6f7220617070726f766564000000000000000000000000000000602082015250565b613a2681613110565b8114613a3157600080fd5b50565b613a3d81613122565b8114613a4857600080fd5b50565b613a548161312e565b8114613a5f57600080fd5b50565b613a6b8161317a565b8114613a7657600080fd5b5056fe416e204e465420772f20494420257320686173206265656e206d696e74656420746f2025734142434445464748494a4b4c4d4e4f505152535455565758595a6162636465666768696a6b6c6d6e6f707172737475767778797a303132333435363738392b2fa26469706673582212202941199df2537b41aae7e3330c011753b33de58c199cac22357529fb79d1b99764736f6c634300080400333c73766720786d6c6e733d27687474703a2f2f7777772e77332e6f72672f323030302f73766727207072657365727665417370656374526174696f3d27784d696e594d696e206d656574272076696577426f783d273020302033353020333530273e3c7374796c653e2e62617365207b2066696c6c3a2077686974653b20666f6e742d66616d696c793a2073657269663b20666f6e742d73697a653a20323470783b207d3c2f7374796c653e3c726563742077696474683d273130302527206865696768743d2731303025272066696c6c3d27626c61636b27202f3e3c7465787420783d273530252720793d273530252720636c6173733d27626173652720646f6d696e616e742d626173656c696e653d276d6964646c652720746578742d616e63686f723d276d6964646c65273e",
  "linkReferences": {},
  "deployedLinkReferences": {}
}